:020000040800F2
:10000000283800200D020008A34C0008F142000827
:10001000A14C000891140008975A00080000000045
:100020000000000000000000000000006551000812
:100030001D17000800000000635100086751000808
:1000400027020008270200082702000827020008EC
:1000500027020008270200082702000827020008DC
:1000600027020008270200082702000827020008CC
:1000700027020008270200082702000827020008BC
:1000800027020008270200082702000827020008AC
:10009000270200082702000827020008270200089C
:1000A000270200082702000827020008270200088C
:1000B000270200082702000827020008270200087C
:1000C000270200082702000827020008270200086C
:1000D000270200082702000827020008270200085C
:1000E000270200082702000827020008270200084C
:1000F000270200082702000827020008270200083C
:10010000270200082702000827020008270200082B
:10011000270200082702000827020008270200081B
:10012000270200082702000827020008270200080B
:1001300027020008270200082702000827020008FB
:1001400027020008270200082702000827020008EB
:1001500027020008270200082702000827020008DB
:1001600027020008270200082702000827020008CB
:1001700027020008C94C0008270200080000000000
:1001800027020008270200082702000827020008AB
:10019000270200082702000827020008270200089B
:1001A000270200082702000827020008270200088B
:1001B000270200082702000827020008270200087B
:1001C000270200082702000827020008270200086B
:1001D000270200082702000827020008270200085B
:1001E000270200082702000827020008270200084B
:1001F0002702000827020008DFF80CD000F068FA98
:1002000000480047956F00082838002006488047BE
:1002100006480047FEE7FEE7FEE7FEE7FEE7FEE7EB
:10022000FEE7FEE7FEE7FEE76D510008F901000872
:100230002DE9F05F0546002092469B46884606461B
:10024000814640241BE0284641464746224600F0AE
:1002500076F853465A46C01A914110D311461846B3
:10026000224600F05DF82D1A67EB01084F46224642
:100270000120002100F054F817EB00094E41201E28
:10028000A4F10104DFDC484631462A464346BDE876
:10029000F09F40EA01039B0703D009E008C9121F41
:1002A00008C0042AFAD203E011F8013B00F8013B30
:1002B000521EF9D27047D2B201E000F8012B491E5C
:1002C000FBD270470022F6E710B513460A460446F3
:1002D0001946FFF7F0FF204610BD30B50446002058
:1002E000034600E05B1C934203D2E05CCD5C401B04
:1002F000F8D030BD30B50B46014600202022012445
:1003000009E021FA02F59D4205D303FA02F5491BE3
:1003100004FA02F52844151EA2F10102F1DC30BDF9
:10032000202A04DB203A00FA02F1002070479140B5
:10033000C2F1200320FA03F3194390407047202AAA
:1003400004DB203A21FA02F00021704721FA02F37F
:10035000D040C2F1200291400843194670472DE970
:10036000FE4F804681EA0300C00F0C46009021F04A
:10037000004123F00045B8EB0200A94105D24046F8
:10038000214690461C460B46024623F0004010438F
:1003900047D0270DC7F30A00C3F30A510290401A51
:1003A000019040286BDAC3F3130040F4801B0098DF
:1003B000924620B10023D2EB030A63EB0B0B0198AA
:1003C0005946C0F140025046FFF7AAFF06460D46C7
:1003D00050465946019A00F08DF910EB0800614132
:1003E000002487EA115284EAE7731A4340D0009A46
:1003F00062B3019A012A4FEA075215DC001B61EB38
:1004000002014FF0004202EA0752CDE90042001C0F
:1004100041F5801132462B4600F08DF903B0BDE85E
:10042000F08F40462146F9E7001B61EB0201001CFA
:1004300041F5801300185B412018A2F5001747EB27
:10044000030140EAD570B6196D4111E06D084FEA1D
:10045000360645EAC0754FEA0752001B61EB020100
:10046000001C41F5801149084FEA30000019514144
:1004700032462B4603B0BDE8F04F00F04DB900986E
:10048000012240000023D0EB020263EBE0730098EE
:1004900021464FEAE074B8EB000061EB0401E9E7A4
:1004A00083F000435BE781F0004158E72DE9FE4F00
:1004B00081EA030404F0004421F0004100944FF06D
:1004C000000B23F0004350EA01045ED052EA03041B
:1004D0005BD0C3F30A54C1F30A552C44A4F2F3349D
:1004E0000194A0FB0254C1F3130141F48011C3F342
:1004F000130343F4801301FB024400FB034E840A00
:10050000970A44EA815447EA8357A4FB0768029597
:100510008D0A05FB07854FEA932C04FB0C54270535
:10052000029D4FEA065847EA1637B5EB08056EEB11
:10053000070C870E920E47EA811742EA8312A7FB47
:100540000201B6EB0B0164EB00042B0D43EA0C3304
:100550005E1844EB1C50DA465146E7FB0201C5F336
:1005600013044FEA0B3343EA14534FEA0432019C5D
:1005700043EA0603A4F10C040294009CCDE900B404
:1005800000F0D9F803B0BDE8F08F00200146F9E78C
:100590002DE9F04D81EA030404F0004B21F0004501
:1005A00014464FF0000A23F0004150EA050220D023
:1005B00054EA01021DD0C5F30A570246C5F31303DE
:1005C000C1F31300C1F30A5640F4801543F48013BD
:1005D000A7EB0608101BD64608F2FD3873EB0500A2
:1005E00002D308F1010801E092185B41B8F1000F55
:1005F00003DA00200146BDE8F08D00204FF48011A1
:10060000064684460EE0171B73EB050705D3121B45
:1006100063EB050306434CEA010C49084FEA30003E
:1006200092185B4150EA0107EDD152EA030012D063
:1006300082EA040083EA0501084305D0101BAB41A0
:1006400006D20122002306E000224FF0004302E020
:100650006FF0010253101AEB06004CEB085110EB3F
:100660000A0041EB0B01BDE8F04D00F055B8C1F3B5
:100670000A52C1F3130140F2FF3341F480119A4250
:1006800002DA00200146704740F233439A42A2F258
:10069000334202DC5242FFF752BEFFF741BE000078
:1006A00030B5041E71F1000404DB4FF000444042F9
:1006B00064EB0101141E73F1000405DB1C464FF0CE
:1006C0000043524263EB0403994208BF904230BD9D
:1006D000064C074D06E0E06840F0010394E807008F
:1006E00098471034AC42F6D3FFF78AFDCC7F0A0856
:1006F000EC7F0A08202A06DBCB17203A41FA02F0E9
:1007000043EAE07306E041FA02F3D040C2F120026E
:10071000914008431946704710B5141E73F1000448
:1007200008DA401C41F1000192185B411A4301D1E3
:1007300020F0010010BD2DE9F04D92469B4611B10D
:10074000B1FA81F202E0B0FA80F220329046FFF76F
:10075000E7FD04460F4640EA0A0041EA0B01534612
:100760005A46084313D0114653EA010019D0C8F184
:1007700040025046FFF7E3FD05460E4650465946F7
:100780004246FFF7CDFD084305D0012004E0204696
:100790003946BDE8F08D0020054346EAE0762C435B
:1007A00037430A986305E40AA0EB08000022FD0A1B
:1007B00044EA47540A3002D500200146E9E7010522
:1007C00010196941DDE9084500196941BDE8F04D9E
:1007D000A2E770B58C1810F8015B15F0070301D182
:1007E00010F8013B2A1106D110F8012B03E010F894
:1007F000016B01F8016B5B1EF9D12B0705D40023B7
:10080000521E0DD401F8013BFAE710F8013BCB1A58
:10081000921C03E013F8015B01F8015B521EF9D54D
:10082000A142D8D3002070BD09491CB50024D1E9EC
:100830000023CDE900408868064C00EB800101EB05
:10084000C00104EB8101C96D03F0A0FF1CBD0000D5
:10085000B00300202826002030B40A4C0A4BA468BC
:1008600004EB440403EB84039B689C881D68E41D2F
:10087000DB88E408203A14FB02F203FB025230BC8E
:1008800000F04EBFB0030020EC2600202DE9F04719
:10089000002615468946314600E0491C12F8014BF6
:1008A000002CFAD1DFF89080012B244FD8F80840B3
:1008B000D8F8002004EB440407EB8404A468A4885F
:1008C000B2FBF4F203D0022B06D0044608E0511A22
:1008D000614300EB510002E0511A6143081A84B2EF
:1008E00047F6FF71601E884212D3012410E049468A
:1008F0002046FFF7B1FFD8F80800761CB6B26D1C91
:1009000000EB400007EB800080688088204484B2C0
:100910002A78002A0ED0D8F80830D8F8001003EB57
:10092000430007EB80008068808806FB101189B2C5
:100930008142DCD2BDE8F087B0030020EC26002025
:100940002DE9FF4F82461446032089460025A0EB7F
:10095000440878E03E4EA9EB040B3E4F0AEB05003D
:10096000B16801EB410157F821201FFA8BF1039088
:1009700080B200F095F8B0681FFA8BF100EB4000F0
:1009800057F82020AAEB0500029080B200F088F80A
:10099000B068A9EB050B1FFA8BF100EB400057F88C
:1009A00020200AEB0400019080B200F079F8B068D2
:1009B0001FFA8BF100EB400057F82020AAEB04004F
:1009C000009080B200F06CF8B16809EB040B03985A
:1009D00001EB410180B257F821201FFA8BF100F0A2
:1009E0005FF8B0681FFA8BF100EB400057F8202049
:1009F000029880B200F054F8B26809EB050B019838
:100A00001FFA8BF102EB420280B257F8222000F06D
:100A100047F8B2681FFA8BF1009802EB420280B2ED
:100A200057F8222000F03CF8B8F1000F04DA08EB88
:100A3000850000F1060805E0291B641E08EB810013
:100A400000F10A086D1CA54284D9BDE8FF8F0000A3
:100A5000B0030020EC2600202DE9FC410E4B04469B
:100A6000002598681B6800EB800703FB01410B4BD6
:100A700007EBC00700EB400603EB8704C433E46DCB
:100A800053F8263004EB8101CDE90053012303F034
:100A90007DFEBDE8FC810000B00300202826002078
:100AA000084B30B59C681B6804EB840501FB030010
:100AB000054905EBC40401EB8401C96D41F8202010
:100AC00030BD0000B0030020282600202DE9F041B1
:100AD0001C4616460D460746FFF7BEFF281932464C
:100AE00081B23846FFF7B8FF22462946384600F063
:100AF00009F8B81922462946BDE8F04180B200F055
:100B000001B800007CB50F4C0346A068246800EBD8
:100B1000800504FB01310C4B05EBC005641E03EBA3
:100B20008503094DC435DB6D03EB810100EB400308
:100B300055F82330CDE900431346012203F026FE89
:100B40007CBD0000B0030020282600202DE9F74FCF
:100B5000DFF8B49014460320DFF8B0A0A0EB440601
:100B60000F4600259046D9F8080082B000EB4001FE
:100B70005AF8210000F036FA4FF6FF7B31E08CB1D5
:100B800002980BEA44027B19001BCDE9000299B2DE
:100B900080B2FFF761FF0098791B89B2019A80B299
:100BA000FFF75AFF8DB102980BEA45023B1B401B31
:100BB000CDE9000299B280B2FFF74EFF00983919D3
:100BC00089B2019A80B2FFF747FF002E03DA06EBE5
:100BD0008506B61D04E0281B641E06EB80060A3657
:100BE0006D1CA542CBD9D9F8080000EB40015AF89A
:100BF000210000F0F7F9029805B042463946BDE8F9
:100C0000F04FFFF79DBE0000B0030020EC2600204F
:100C10000148006870470000B003002001484068A8
:100C200070470000B0030020012000F001B8000070
:100C30002DE9FE43814646F6253600F06DF900F0B9
:100C4000EBF8534D51482860284601F0CAF94FF29D
:100C5000244043F60451B0FBF1F14FF0050828465B
:100C60000122642300240294CDE90038C5E9021270
:100C7000694601F0E7F9474DB9F1000F4FF4F07004
:100C80004FF448717ED0C5E9001044494448B1FB97
:100C9000F6FCD5E90013404A00F1100EC0E9004807
:100CA00004624FF00208B2FBF6F7C46101F22F12A2
:100CB000C0F80C804FF22448446202FB08F240F670
:100CC000FF78B2FBF6F68EE81201C0E90A7C00F16B
:100CD000340C0C210A460F4606638CE886004FF45C
:100CE0000041C0E910311021C0E912144902016528
:100CF00049104165491081654910C1654910016677
:100D0000491041660146224801F040F8204E3E203D
:100D1000A83E7061B620F061286800F1B6017162EA
:100D20007831F1623066082168687066A6F5AA70AD
:100D300001604FF4C07141610721C462C16102F0DA
:100D40003BFC86F8344086F8354086F83640154836
:100D5000346113493060304601F074FF304601F0D1
:100D6000C9FF0B4801F09FFA00F048F909480C3020
:100D700000F014F90020494603F0AEFF0020BDE862
:100D8000FE83FFE7C5E900017FE70000006C01403A
:100D9000D0260020B0030020DC143C00E07072007C
:100DA000642500200068014070B5194A8EB0002308
:100DB00004460DF10C0C0093FF2510684FF4C0663B
:100DC000CDE901035268099107218CE82C000693B4
:100DD0008DF83030CDE90A028DF8313022468DF899
:100DE0003230CDE907610B48694601F059FF0949E6
:100DF00004EB44004FF0FF34C43101EB80022306C2
:100E00005460034C0C34946041F820300EB070BD37
:100E1000B003002028260020284908B5086840F0C3
:100E200080600860086800F08060009023482038E7
:100E3000026842F080620260026822F08062026012
:100E40001E4A143A136843F400031360126802F454
:100E500000020092194A343A136843F40003136005
:100E6000136823F4000313600A6842F000620A600A
:100E7000096801F000610091016841F000610160C2
:100E8000016821F00061016000220321582002F076
:100E900025F8582002F016F8002203215A2002F00B
:100EA0001DF85A2002F00EF800220321622002F001
:100EB00015F8BDE80840622002F004B8443802404A
:100EC000134B30B5124C9B68124A03EB8305246820
:100ED00005EBC30302EB830301FB04019A6CD86D9D
:100EE00052B1012A0BD0022A0ED0042A0CD0072AB4
:100EF0000AD010F8110030BD50F8210030BD50F874
:100F0000210020F07F4030BD30F8110030BD0000DE
:100F1000B003002028260020144830B587B00168AF
:100F200041F40071016000680321114D4FF4004449
:100F300000F4007005900120CDE902016946CDE979
:100F40000040284601F0DAFA00222146284601F046
:100F5000C1FB142001F0BEF901222146284601F010
:100F6000B9FB0A2001F0B6F907B030BD30380240B5
:100F7000002402400149886070470000B00300204F
:100F80000449054A896801EB410102EB810148608F
:100F900070470000B0030020EC2600200449054AF9
:100FA000896801EB410102EB810188607047000014
:100FB000B0030020EC260020094A8423012903EB1A
:100FC000C01011680B5808D023F001030B501068B3
:100FD000416A41F001014162704743F00103F5E7C6
:100FE000282600200349044A896801EB410142F8A0
:100FF00021007047B0030020EC2600201C4802228C
:101000002DE9F04100F13401184E07230660042554
:1010100081E82C00CB6000240A6120234A6140262D
:101020008A61910244604FF4C077C0E902454A00EA
:10103000C0E90741C0E909241030002180E8C80058
:10104000103800F05FF80A490948343102F0DEFF39
:10105000084D10B10120287000E02C7040F20360B0
:1010600000F00AF82878BDE8F0810000400100A0F7
:10107000C4270020C40300202DE9F843204C10278A
:1010800000254FF6FF780126009521468146C4E9E8
:101090000067C4E90265A1F15000424602F0EAFF90
:1010A000012001F017F902202146C4E90007C4E934
:1010B0000265A1F15000424602F0DCFF03214246E6
:1010C000C4E9001708202146C4E90205A1F1500037
:1010D00002F0D0FF4FF40C70009004214246C4E9A6
:1010E0000260C4E900172146A1F1500002F0C2FFDE
:1010F000A4F150004946BDE8F84302F0AABF000041
:1011000014280020F0B504464F4887B0016841F02C
:101110000101016000684C4900F0010005900839A8
:10112000086840F480000860086800F480000590BA
:10113000086840F008000860086800F008000590A2
:10114000086840F010000860086800F01000059082
:10115000086840F020000860086800F02000059052
:10116000086840F040000860086800F04000059002
:10117000086840F080000860086800F08000059072
:10118000086840F480700860086801AE03254CF2DE
:10119000037300F4807005900220009301210C225B
:1011A000049286E823002948694601F0A7F94FF622
:1011B000837000902648694601F0A0F94FF63F0081
:1011C00000902448694601F099F948F237100090E0
:1011D0002148694601F092F94FF62C7000901F48A3
:1011E000694601F08BF940F2FF6000901C486946A7
:1011F00001F084F91B49802300229E00DF00C1E931
:1012000001230C314FF4805CD801A1E8C010C30069
:10121000154E81E80D00C1E903254A618A6141F854
:10122000186D21630F488C6300F00CFD0D4800F031
:101230003BFD00220F21382001F050FE382001F044
:1012400041FE07B0F0BD000038380240000C0240FB
:10125000001002400014024000180240001C02402E
:101260000020024004270020106402402DE9F04FC6
:1012700087B04B4D4FF0000907464C46CDF804901F
:10128000CDF80890CDF80C906868016928788847F7
:10129000002838707FD000240DF1100A05AE05F14A
:1012A000100B71E0686806EB44020AEB4401D0467B
:1012B0004369287898476878010707D538F81420DB
:1012C00036F8143028F8143026F81420810706D593
:1012D00038F81420A2F21F32524228F81420400796
:1012E00006D536F81400A0F2DF10404226F81400AC
:1012F0002B4938F81400083151F82420904201D9C4
:10130000821A00E0121A5BF824C01FFA82F836F83D
:1013100014205B46624502D9A2EB0C0C01E0ACEB59
:10132000020C1FFA8CFCC444BCF1050F03D941F830
:10133000240043F8242007EB440031F8242003A9BB
:1013400002AB42803BF82420C28001AA00912146D2
:10135000287805F0C7FD38190199817202998173C7
:10136000039931B1012907D0022908D003290AD1F4
:1013700007E0012101E00EE00221017303E00321F7
:10138000FBE780F80C90641C3878A0428AD8384675
:1013900000F008F8044607B02046BDE8F08F0000D2
:1013A000C8030020F8B50446144800266946009694
:1013B0003546007805F086FD0098182816D005DC23
:1013C00068B110280DD0142806D10CE01C280FD0CD
:1013D00048280FD049280FD001252846F8BD26619E
:1013E000FBE7012000E002202061F6E70320FBE795
:1013F0000420F9E70520F7E70620F5E7C8030020F9
:101400002DE9F041154D8846154C00260746296800
:1014100020788847696854208847C0B211280BD0CB
:1014200069687020884770212170C0B2112805D0EA
:1014300003263046BDE8F0815420207047456560A2
:1014400001D2012000E00C206070A9682078884754
:101450006068C16820788847EBE70000E00300205F
:10146000C80300204FF0010110B578B100210161DF
:101470000A460170831800EB4204521C022A618064
:10148000E180997319739972F4D30021084610BD55
:10149000FEE70000F0B5BFF34F8FBFF36F8F194920
:1014A0000020174B0860196841F400311960BFF340
:1014B0004F8FBFF36F8F124970310860BFF34F8FAA
:1014C000081F104D43F6FF7410350068C0F34E310D
:1014D000C0F3C90204EA4116104600BF46EA80770D
:1014E0002F60401EFAD2491EF4D2BFF34F8F186806
:1014F00040F480301860BFF34F8FBFF36F8FF0BDA3
:1015000014ED00E050EF00E0204AF0B5204E1168E5
:1015100040F25144631C002021F0010717600121B3
:101520003268C2F30A02A2F58065493D04D0A242A6
:1015300004D140F0010005E0084603E09A4201D1E1
:10154000012200E00022144B1043124A09D0134834
:10155000816081680029FCD102600068984213D044
:10156000FEE70F4C4FF00A402468B0EB445F0BD10C
:101570000C48016001680029FCD10A480838026063
:101580000068984200D0FEE7F0BD0000002000E0B7
:10159000002004E0C2A507F4CDB5E8B50030024054
:1015A0000010005C084C025830B5DDE90354A84235
:1015B00009D81044A84206D3A14204D8C818A042B2
:1015C00001D3012030BD002030BDF0B5059C44EAB8
:1015D000034503685C6C04F040442C435C6403687E
:1015E000DA634268B2F5403F02D00068C160F0BDE6
:1015F00001F47F42856801F47F04224301F07F43B8
:1016000001F47F0701F47F46CCB2BDB1012D16D0A5
:1016100001F47F02C1F3C401D20C022D11D0032DBD
:1016200014D0320B390D15011A0F45EA0123210997
:1016300043EA02320A4300688263F0BD1A43224340
:10164000F9E7B30A5B0143EAC222F3E7F40ADB0FCE
:10165000640144EA822242EAC332EBE701681823BC
:10166000CAB2103AB2FBF3F2054B6FF30901032A39
:101670009B5CC36500D9091D816508467047000061
:101680004C76000810B583694FF0C074826A014639
:10169000002053B1B3F5005F15D072B1012A0CD010
:1016A000022A0AD0032A09D104E01AB1012A06D07D
:1016B000022A03D1C96AC90100D5012010BDC96A37
:1016C000A142FAD010BD002AF7D0012AF2D0022A96
:1016D000F3D0032AF3D010BD10B542EA811141EADC
:1016E0000321029C41EA0441C16610BD1CB50128DA
:1016F00008D84878152200900B780021064800F0A1
:10170000A3FD1CBD0A5C0346CDE900210248392235
:10171000002100F049FD1CBDD026002070470000CC
:101720002DE9F74F29480026DFF89CA0806800EBE0
:1017300040000AEB800080688588C788E81D8346E2
:1017400020F00700401B00F0FF0939E04FEADB0101
:101750000298012901FB060009D0022909D001786D
:1017600042788378080440EA0220184303E00078B6
:1017700001E0008840BA002480461AE02A1B02EBF0
:1017800009010120491E884010EA080F009800EB6B
:1017900004020E48816890B201EB410202D05AF86F
:1017A000222002E00AEB82014A680199FFF778F9EA
:1017B000641CAC42E2D30198401C80B20190761CBC
:1017C000BE42C3D3BDE8FE8FEC260020B00300204C
:1017D0007047F0B5D1E90125D1E90343D1E9057698
:1017E0002A43D1F800C044EA0304D1E9073542EAAC
:1017F0000402496A42EA0702BCF1010F42EA06020A
:1018000008D004681A432A430A43E30BDB031A4354
:1018100002600BE0066844682B4326F4F845294330
:101820000B4303606FF30E04224342600020F0BDBF
:10183000426942EA410141610020704738B591E8B0
:101840001C00C9686FF01F051A4305EB441444EAF5
:1018500041210A4300920261002038BD2DE9F04386
:10186000914691E81C006FF00F05521E2E0105EB0A
:1018700003131A430B7E06EB04268C8A2F034FEAD0
:10188000054C0D8A32434FF07F4808EB0366CB6866
:10189000B9F1010F07EB05450CEB04540CD081683E
:1018A0003F1107EB03331A432A432243324301F02B
:1018B00070410A43826011E08168DFF828C0C76880
:1018C0001B03A3F5805323432A4301EA0C0132434F
:1018D0000B43836007F070442243C2600020BDE8E0
:1018E000F0830000FF0F0FFF30B501255FF01F03ED
:1018F00005FA03F40C4201D15B1EF9D27AB1082A31
:1019000009D0102A04D0182A09D1072B05D206E0E5
:10191000082B02D203E0102B01D3012030BD036855
:1019200059610068816821F018011143816000202D
:1019300030BD000010B5040010D0607F20B9002039
:101940002077204600F032F821790220607739B103
:10195000D4E902122046FFF7C7FF48B1012010BDAD
:101960002168114848612068816821F01801816070
:101970006079A0B12168206908610122206863694B
:10198000816821F06001194381602068A369816842
:1019900021F08001194381606277002010BD216829
:1019A0004FF0FF30E8E70000B71DC10408B500683C
:1019B0000649884208D10648016841F48051016017
:1019C000006800F48050009008BD00000030024024
:1019D00030380240F0B501EB410290F8503000EB96
:1019E000C2022032012B27D0264C012580F850500E
:1019F000022380F8513016895368178AB2F814C050
:101A000043EA06460A2B46EA075646EA4C5615D0E4
:101A1000092B13D0137B46EA0363066899B1F16979
:101A2000A1431943F161016813680B6151680A29E8
:101A30001BD0092919D01DE00220F0BDD36803F0A6
:101A40007F433343E9E7716AA14319437162016837
:101A500013688B6151680A2901D009290AD1D1681C
:101A6000026821F07F41916204E0D168026821F0B0
:101A70007F411162002180F8515080F850100846D3
:101A8000F0BD00000F0033FF70B5040004D094F8DF
:101A90005100002510B106E0012070BD204684F8F9
:101AA000505000F02EF8022084F85100D4E90003D1
:101AB0000121026822F440321A4302602068A368C0
:101AC000426B22F007021A4342632068E368026C0B
:101AD0006FF30D021A4302642068228A436B23F4D9
:101AE000801343EA025242632068A28A436B23F4C4
:101AF000001343EA42524263656584F851100020A6
:101B000070BD70472DE9F8430026044604270D46B2
:101B100000964FF0030800680068C00727D000F067
:101B2000DFFD81461FE04068009010F0210F11D0CA
:101B30000098800603D5606D40F002006065009853
:101B4000C00703D0606D40F001006065206821216E
:101B5000816034E0681C06D0C5B300F0C1FDA0EB85
:101B60000900A8423CD8206841688907DBD5206875
:101B7000C169890602D4406A80063FD500F0B0FDF5
:101B8000814637E04068009010F0290F1FD0009880
:101B9000000703D5606D40F0040060650098800682
:101BA00003D5606D40F0020060650098C00703D067
:101BB000606D40F00100606521682920886084F82C
:101BC0005170012084F85060BDE8F88308E0681C7B
:101BD00010D02DB100F084FDA0EB0900A84209D976
:101BE000616D84F8506041F02001616584F8518096
:101BF0000320E9E720684168C906C3D5226812219D
:101C00000120916084F85100002084F85060DBE7E7
:101C1000F8B50446069894F85050012D10D00126CE
:101C200084F85060022584F8515000902046FFF758
:101C3000CCFC2068016841F0010101600020F8BD82
:101C40000220F8BD70B504002BD094F835000228AE
:101C500026D0206800252122016821F001010160C1
:101C60002068056020684560206885602068C56040
:101C700020680561206842612046FFF7EFFC94F878
:101C80005C203F2191408160E56325646564A56423
:101C9000E5642565656584F83550002084F8345086
:101CA00070BD012070BD00002DE9F047044600F032
:101CB00017FD054664B14FF0000984F83490022105
:101CC00084F835102068016821F0010101600EE000
:101CD0000120BDE8F08700BF00F002FD401B052891
:101CE00005D920216165032084F83500F1E72068DB
:101CF0000068C007F0D1D4E90020D4E90251D4E94A
:101D0000043C284304F1180519430843116895E879
:101D1000E00140EA0C001C4B2843194040EA060051
:101D200040EA0700B8F1040F40EA010003D1D4E90A
:101D30000B1319430843106020680126656A406947
:101D4000042D20F0070045EA00050CD1D4E90A0172
:101D5000054341B12046FFF795FC20B14020606566
:101D600084F83560B4E7206845612046FFF776FCCB
:101D700094F85C303F229A408260C4F8549084F812
:101D800035600020A5E700003F8010E070B5027CC0
:101D9000012A6AD0012202740268536B23F0010306
:101DA00053630268D2F8003423F00103C2F8003410
:101DB0000268936B23F0030393630268CC68936B10
:101DC000234393630268D36B6FF30D03D3630268FD
:101DD0000C69D36B2343D3630268136C6FF30C035A
:101DE000136402684C69136C234313640268536CD8
:101DF0006FF30C03536402688C69536C2343536480
:101E00000268D36823F00303D36002680C68D368C8
:101E10002343D3600268536923F0070353610268C8
:101E2000D1E90845CE69536934432B4323435361B9
:101E30000268136923F00F03136102684C68136989
:101E4000234313610268D2F8003423F00E03C2F872
:101E5000003402684B68D2F8004444EA4303C2F8F5
:101E600000344A68032A02D00BE0022070BD0268E9
:101E7000136923F48073136102688C681369234328
:101E8000136102680023946C6FF30B04946402687E
:101E90008D6A946C2C4394640268D46C6FF30B04C9
:101EA000D4640268CD6AD46C2C43D4640268146D87
:101EB0006FF30E04146502680D6B146D2C431465EA
:101EC0000268546D6FF30904546502684D6B546DDC
:101ED0002C4354650268946D6FF30904946502689D
:101EE0008D6B946D2C4394650268D46D6FF3090477
:101EF000D4650268CD6BD46D2C43D4650268146E32
:101F00006FF30D04146602680D6C146E2C43146696
:101F10000268946B24F40044946302684D6C946BE3
:101F20002C4394630268946924F47F0494610268EA
:101F3000B1F84840956945EA04449461026894699F
:101F400024F0FF0494610268CD6C94692C43946181
:101F50000268946B24F40054946302680D6D946BD2
:101F60002C4394630268946B24F480549463026855
:101F70004D6D946B2C4394630268946B24F400645D
:101F8000946302688D6D946B2C4394630268946B28
:101F900024F4806494630268CD6D946B2C43946345
:101FA0000268946B24F40074946302680D6E946B61
:101FB0002C4394630268946B24F4807494630268E5
:101FC0004D6E946B2C4394630268946B24F48044AC
:101FD000946302688C6E916B2143916303740020BB
:101FE00070BD10B504002AD0032060742068D0F8BA
:101FF000041421F00801C0F804142068416821F09D
:10200000010141602068D0F8A01021F00601C0F85D
:10201000A0102068D0F8301421F00101C0F830146D
:102020002068D0F8301421F08071C0F830142046B8
:1020300000F008F9002060616074207410BD012078
:1020400010BD00002DE9F04104000D4602D0607C77
:1020500018B105E00120BDE8F081204600F0F3F85A
:10206000032060742068D0F8301441F08071C0F80B
:10207000301400F035FB4FF47A77064605E000BFD8
:1020800000F02EFB801BB8422BD82068D0F80C043F
:10209000C004F5D52068424AD0F830141140C0F889
:1020A00030142068D5E900212B89D0F830644FEA3C
:1020B000C12C46EA82014CEA03421143C0F83014B5
:1020C0002068D0F8301441F00101C0F8301400F05D
:1020D00007FB064607E000BF00F002FB801BB8428A
:1020E00001D90320B7E72068D0F80C04C005F3D568
:1020F0002068D0F8A01041F00601C0F8A0102068B8
:10210000D0F8941021F00301C0F89410D4E9000233
:10211000D0F89410114341F00101C0F894102068E8
:10212000D0F8A41021F00301C0F8A4102068E268E0
:10213000D0F8A4101143C0F8A4102068816821F0E1
:10214000FF0181602068A26881681143816068682E
:1021500000B901201349226846F2A81695F808C074
:102160002B684843D2F8185400210127734325F007
:102170003F05C2F8185400FA0CF0B0FBF3F02268E7
:10218000D2F818340343C2F818342068C0F8C410D9
:102190002068C0F8C810A1616161677400205AE727
:1021A0000386FCFF00093D002DE9FF4F81B0044686
:1021B000007C00251E46DDE90EB7012808D001206D
:1021C000207400F08DFA4FF47A7A8046A9460DE02B
:1021D000022005B0BDE8F08F00F082FAA0EB080005
:1021E000504503D9032084F81090F2E72068406F2F
:1021F000C007F1D016E06DB9387803257978032E41
:102200002268BB784BEA002040EA014040EA0360C4
:10221000106709D978192168C278006862F31F60D5
:1022200008672D1DB542E6D3761CDDE90212C6F320
:10223000072000902068F3B2FFF74EFA002084F8E0
:102240001090C6E7704770472DE9F84F0446007CB0
:1022500099469246DDF8288001288B4608D0012057
:10226000207400F03DFA002605464FF47A770BE023
:102270000220BDE8F88F00BF00F032FA401BB842E0
:1022800002D903202674F4E72068406FC007F3D01A
:10229000CDF800804B46206852465946FFF71CFA9D
:1022A00000202674E5E7017C012911D00121017489
:1022B000016800224B6843F001034B600168D1F8CC
:1022C000043443F00803C1F8043402741046704724
:1022D0000220704770B5044600F002FA0546601C03
:1022E00002D004480078044400F0FAF9401BA042F0
:1022F000FAD370BD780000202348F0B5016887B09C
:1023000000293ED1012101602048016841F001010E
:102310000160006802240025694600F00100059074
:1023200003264FF683700C278DE8F100184800F063
:10233000E5F848F2371069468DE8F100154800F0DD
:10234000DDF84CF2037069468DE8F100124800F0A8
:10235000D5F840F2FF6069468DE8F1000F4800F0C3
:10236000CDF84FF63F0069468DE8F1000C4800F0CB
:10237000C5F84FF62C7069468DE8F100094800F069
:10238000BDF807B0F0BD0000400000203838024022
:102390000010024000180240000C024000200240E1
:1023A00000140240001C02402DE9F04FDFF81CE150
:1023B000894600214FF0010A4FF00F0B0AFA01F491
:1023C00009EA0403A3427BD1076803254E00CA082B
:1023D000B540AF4307604E0700EB8202D2F820C041
:1023E0004FEAD6680BFA08F72CEA070CC2F820C0AF
:1023F0008F0721F00308D0F808C03F0F08EB0E0646
:10240000DFF8CC800BFA07F22CEA050CC0F808C004
:10241000D0F804C040452CEA040CC0F804C0C468DD
:1024200024EA0504C460D6F8084802EA040401D18D
:1024300000252DE0274DA84201D1012528E0264D99
:10244000A84201D1022523E0244DA84201D1032551
:102450001EE0234DA84201D1042519E0214DA842D8
:1024600001D1052514E0204DA84201D106250FE039
:102470001E4DA84201D107250AE01D4DA84201D1F9
:10248000082505E01B4DA84201D1092500E00A25D9
:10249000BD40A54214D1D6F80858174C271D9543C6
:1024A000C6F8085826683A1D151D9E4326603C68EC
:1024B0009C433C6014689C4314602A689A432A60D9
:1024C000491C1029FFF47AAFBDE8F08F00300140BD
:1024D000000002400004024000080240000C0240DC
:1024E000001002400014024000180240001C02408C
:1024F0000020024000240240003C01402DE9F84F3A
:10250000DFF89CE100224FF001084FF0030B4FF081
:102510000F0A00BF0B6808FA02F42340A34271D1EE
:102520004D68022D01D0122D0FD1D5080E69570725
:1025300000EB8505A9462D6AFF0E0AFA07FCBE408E
:1025400025EA0C052E43C9F820600F79550006686E
:102550000BFA05FC07F0030726EA0C06AF403743E9
:1025600007604E68012E05D0022E03D0112E01D037
:10257000122E0ED18668CF6826EA0C06AF4037438C
:10258000876046680F79A643C7F300179740374323
:102590004760C4688E6824EA0C04AE402643C660D7
:1025A0004C68E40075D53F4C256845F480452560AE
:1025B000246822F00306950704F4804400943A4C02
:1025C0002D0F2644D6F80848DFF8E0C00AFA05F7D0
:1025D000604524EA070401D100272EE0344FB842B9
:1025E00001D1012729E0334FB84201D1022724E06D
:1025F000314FB84201D103271FE0304FB84202D11A
:1026000004271AE045E02E4FB84201D1052714E017
:102610002C4FB84201D106270FE02B4FB84201D111
:1026200007270AE0294FB84201D1082705E0284FC3
:10263000B84201D1092700E00A27AF402743754679
:10264000C6F808784E68DEF80040F60324EA030472
:1026500000D51C43124E2C60361D4D683468AD0306
:1026600024EA030400D51C430D4F346008374D683D
:102670003C68ED0224EA030400D51C43084D3C608D
:102680000C354E682C68B60224EA030400D51C43BE
:102690002C60521C102AFFF43DAFBDE8F88F0000FB
:1026A000003C01404438024000300140000002403C
:1026B0000004024000080240000C024000100240EA
:1026C0000014024000180240001C0240002002409A
:1026D000002402400AB1816170470904FBE7000051
:1026E00001488068704700007800002010B50400A1
:1026F00014D0242084F841002068016821F00101F1
:102700000160204600F0D8F90020606484F84100A0
:10271000206384F8420084F8400010BD012010BD01
:1027200090F841007047000070B5040004D094F8A0
:102730004100002510B106E0012070BD204684F85C
:10274000405000F0E3F9242084F84100206801683B
:1027500021F001010160D4E9001020F070600861EF
:102760002068816821F400418160E06821680128C7
:10277000A06806D040F404408860E068022803D0D6
:1027800006E040F40040F7E721684FF4006048603D
:1027900020212068114A4368134343602068C268BF
:1027A00022F40042C26054F8106B0DCC104340EA92
:1027B0000320F06054F81C3CD4E900021043186078
:1027C00054F81C0D026842F001020260656484F84E
:1027D0004110256384F84250002070BD0080000243
:1027E0002DE9FF4F83B0044690F841009A46934686
:1027F000DDE91087DDF84890202874D15FEA0800F1
:1028000072D0002F70D094F8400001286BD00120C6
:1028100084F84000FFF764FF012206461923009068
:10282000D103204601F03AFE002874D10025C4F8F7
:102830002480222184F84110402084F842006564FD
:102840006785534665635A4604992046CDE900964C
:1028500001F09EFD28B1606C84F8405004285ED0E1
:1028600059E0618DFF2738484FF08078FF294FF0FD
:10287000007A04D927853A464346009005E0618DE9
:1028800053462185009094F828202046049901F0B1
:10289000EFFD00224B4604212046009601F0FEFD8C
:1028A000C8BB2168606A496A421C62620170208D5F
:1028B000401E0004000C2085618DA1F1010161859D
:1028C0001DD1608DD8B100224B4680212046009654
:1028D00001F0E4FDF8B9608DFF2806D927853A4656
:1028E0004346009507E02CE019E0608D53462085B3
:1028F000009594F828202046049901F0B9FD608DD8
:102900000028C6D132464946204601F0F0FD40B1CC
:10291000606C042803D0032007B0BDE8F08F0120CD
:10292000FAE720682021094AC16120684368134002
:10293000436084F8411084F84250002084F84050ED
:10294000EAE70220E8E700000024008000E800FE3B
:102950002DE9FF4F83B0044690F841009A46934614
:10296000DDE91087DDF84890202870D15FEA080083
:102970006ED0002F6CD094F84000012867D0012061
:1029800084F84000FFF7ACFE0122064619230090B0
:10299000D103204601F082FD002854D10025C4F85F
:1029A0002480212184F84110402084F8420065648D
:1029B0006785534665635A4604992046CDE90096DB
:1029C00001F01EFD28B1606C84F8405004286CD0E2
:1029D00039E0608DFF274FF08078FF284FF0007AB4
:1029E00004D927853A464346009505E0608D534655
:1029F0002085009594F828202046049901F038FDA0
:102A000032464946204601F09AFD18B1606C042810
:102A10004BD018E0606A411C6162216800788862CE
:102A2000608D401E6085208D401E0004000C2085B6
:102A300021D1608DF8B100224B46802120460096BE
:102A400001F02CFD28B1032007B0BDE8F08F2EE087
:102A50002BE0608DFF2804D927853A464346009530
:102A600005E0608D53462085009594F82820204687
:102A7000049901F0FDFC608D0028C1D13246494621
:102A8000204601F034FD0028C0D120682021094AE9
:102A9000C161206843681340436084F8411084F8A2
:102AA0004250002084F84050CEE70120CCE70220BD
:102AB000CAE7000000E800FE10B50F4B02680F499E
:102AC0000F489A4206D10A6822F400120A604FF4B5
:102AD00040710CE00B4B9A420DD10A6822F08072D3
:102AE0000A608021FFF760FC07484FF48051BDE881
:102AF0001040FFF759BC10BD005400404038024060
:102B00000004024000600040000C02402DE9F0414A
:102B100086B0044614216846FDF7D4FB22681225CE
:102B2000294C01262A4B4FF0040827491034274826
:102B30009A4219D10A6842F002020A600968002329
:102B40004FF44072039301F00201CDE904818DE856
:102B500064006946FFF7D2FC206840F40010206052
:102B6000206800F400102AE01A4B9A4228D10A6823
:102B700042F002020A600A6802F0020205920A6844
:102B800042F008020A60096803270B22049201F050
:102B90000801059180218DE8E2006946FFF7AEFC4F
:102BA0004FF480510C488DE8E2016946FFF7A6FC1E
:102BB000206840F080702060206800F080700590F0
:102BC00006B0BDE8F0810000303802400004024049
:102BD0000054004000600040000C02400248816840
:102BE000027811448160704778000020032010B5FE
:102BF00000F094F9002000F005F800F04BF90020F7
:102C000010BD000070B50D4D04464FF47A700C4AAB
:102C100029781268B0FBF1F0B2FBF0F001F042FA53
:102C200048B9102C07D200222146501E00F056F958
:102C300000206C6070BD012070BD00007800002095
:102C40007400002010B54A6A0AB14FF00052C26009
:102C50000A6AFAB100228260CA69F2B100224260B7
:102C60004A6B521E8261D1E90D231A44521E026240
:102C7000D1E90D340A6C521E23441A448262D1E910
:102C80000D23D1E90F141A4421441144491E016354
:102C9000002010BD4FF08042DDE74FF00042DEE73C
:102CA0002DE9F041044690F8A00016460F46012891
:102CB0001DD0012584F8A050022084F8A10006EB65
:102CC000860000EBC600342204EB80003830FDF7AC
:102CD000E0FA32463946204601F086FD21680020A0
:102CE0004D6284F8A15084F8A000BDE8F081022074
:102CF000FBE700002DE9F041040004D094F8A100A6
:102D0000002518B107E00120BDE8F081204684F8D5
:102D1000A05000F06FF83648022184F8A11001227B
:102D200002CC8B6923F070438B6194E84A0019430D
:102D3000E3681E4354F8043D31439E693143996171
:102D400021688B6803408B602168A68AA7698B681D
:102D50003B4343EA06438B602168CB680340CB606A
:102D60002168A38B276ACE683E4346EA0346CE60BD
:102D700021680B6903400B612168A68CA76A0B6967
:102D80003B4343EA06430B6121684B6903404B61B7
:102D90002168A38D266B4869304340EA03404861AF
:102DA000236894F8351094F83600DE6A000406F0C3
:102DB0007F46DE62236840EA012094F83460D96AD5
:102DC00031430143D9622068416B41F00401416302
:102DD0002068416B41F0020141632068816941F044
:102DE00001018161C4F8A45084F8A12000208BE780
:102DF00000F800F070470000F0B5154C4378211D35
:102E00000A1D23600378F3B143680B60057BC67A23
:102E1000817A437B2D07847B45EA0665C77B90F862
:102E200009C0067A90F800E045EAC14040EA8340D4
:102E300040EA444040EA074040EA0C2040EA4600AD
:102E400040EA0E0001E0002008601060F0BD0000C4
:102E500098ED00E0BFF35F8F044800210368034A48
:102E600023F48033036070321160704724ED00E07A
:102E7000074A40F00100064970321060086840F4CB
:102E800080300860BFF34F8FBFF36F8F7047000033
:102E900024ED00E00A4808B5016841F08051016066
:102EA000006800F0805000900548001D016841F462
:102EB00080410160006800F48040009008BD00007F
:102EC00040380240410900F01F028900012001F151
:102ED000E0219040C1F80001704700000E4BF0B4B3
:102EE0001B680D46C3F30223C3F10706042E00D965
:102EF0000426191D072901D2002300E0DB1E01244E
:102F000004FA06F19C40491E2940641E9940144071
:102F10002143F0BC01F0C6BE0CED00E0064900F014
:102F2000070210B54FF6FF040868044B204040EA42
:102F300002201843086010BD0CED00E00000FA0507
:102F40007047704770477047704700002DE9F84F91
:102F500004460068002681460546D0F840A002F0ED
:102F60004AFD00287AD1206802F071FD002875D052
:102F7000206802F06CFD800704D52068416901F0EB
:102F800002014161206802F062FD01034FF0000B75
:102F900004F5707000907DD5206802F037FD07467B
:102FA0008AE0F80777D02068F1B202F048FD804649
:102FB000C00742D005EB4610F5490122C0F8082BA6
:102FC0008A4509D9216901291BD1D5F8081B0904B3
:102FD00005D5D103C0F8081B2169012911D1D0F80A
:102FE000103BC6EBC60104EB8101C3F31203D1F819
:102FF0000422D31AC1F81432D1F808321A44C1F8A5
:103000000822E44A924508D1D5F8081B090404D5E2
:103010004FF40041C0F8081B03E02046F1B2FFF76F
:1030200092FF2069012808D13EB9D4F8100220B9D6
:1030300020680121009A02F09BFC5FEA087026D507
:10304000D4498A450BD1D5F8080B00040AD505EB05
:1030500046114FF40040C1F8080B03E05FE2CC4991
:103060008A450CD92069012809D1D5F8080B00043C
:1030700005D505EB46114FF40040C1F8080B20467A
:1030800000F061FA05EB46110820C1F8080B5FEA71
:10309000C86001E013E00DE004D505EB46111020F7
:1030A000C1F8080B5FEA886004D505EB46112020C3
:1030B000C1F8080B7F08761C002F7FF472AF2068E0
:1030C00002F0C5FC40034FF0400A60D5206802F0D2
:1030D00096FC0026074658E0F80754D02068F1B265
:1030E00002F09BFC8046C00727D0D5F83428012188
:1030F00006F00F0305EB461C01FA03F08243C5F806
:103100003428CCF808192069012807D1C6EBC6007D
:1031100004EB8000D0E91121114481642046F1B212
:10312000FFF710FF2069012807D136B9206D20B9BB
:1031300020680121009A02F01BFC5FEA087004D5A8
:1031400005EB46110820C1F808095FEAC86004D5FC
:1031500005EB46111020C1F808095FEA486003D565
:1031600005EB4611C1F808A95FEA887004D505EBA4
:1031700046110220C1F808095FEA086003D531460C
:10318000204601F0A9FF7F08761C002FA4D12068FB
:1031900002F05DFC002811DAD5F8040820F00100E7
:1031A000C5F8040894F8F00301283BD0204600F04D
:1031B000C8F92068416901F000414161206802F0CE
:1031C00046FC00050BD5D5F80808C00702D02046FC
:1031D00000F0BAF92068416901F40061416120689A
:1031E00002F035FC00010AD52068416901F0006158
:1031F000416194F8F003E0B1204600F0A5F92068A1
:1032000002F025FCC0046AD5D5F8040820F00100BE
:10321000C5F804082068102102F0CAFB00214FF60F
:103220007F3228E00021204684F8F0B3FFF788FEC3
:10323000BFE7012084F8F0032068406D0121C0F34E
:103240008300C4F8F4032046FFF77AFED7E700BFF7
:1032500005EB4110C0F80829D0F8003923F4001319
:10326000C0F80039C0F8082BD0F8003B23F4001355
:10327000C0F8003B491C60688842E9D8D5F81C08B2
:1032800040F00110C5F81C08206B60B1D5F8840827
:1032900040F00B00C5F88408D5F8440840F00B0056
:1032A000C5F844080BE0D5F8140840F02B00C5F829
:1032B0001408D5F8100840F00B00C5F81008D5F830
:1032C000000820F4FE60C5F80008217C2068009A00
:1032D00002F04EFB2068416901F480514161206891
:1032E00002F0B5FB80046FD5206802F027FB206850
:1032F000C16821F47051C160206802F06BFB78B1A5
:10330000C4F814A00321E16000F08AFC224A23499A
:1033100002448A420AD22068C16841F4705174E0C4
:10332000C4F80CB04FF40070606153E01C4A1D49B2
:1033300002448A4204D22068C16841F4605164E0CA
:10334000194A1A4902448A4204D22068C16841F4E9
:1033500050515AE01649174A0144914204D220685C
:10336000C16841F4405150E01349144A014491426C
:1033700004D22068C16841F4305146E0104A114936
:1033800002448A4221D22068C16841F420513CE0C5
:103390000A30544F0A31544F405327FF00350C0078
:1033A000401E1BFF40420F0000DC0BFF804F12004D
:1033B000808CF9FE20D6130060B6E5FE60E31600AF
:1033C00000D3CEFE40771B0028E0564A56490244FF
:1033D0008A4204D22068C16841F4105115E0534973
:1033E000534A0144914204D22068C16841F400511B
:1033F0000BE0504A5049104488422068C16802D20C
:1034000041F4E05101E041F4C051C160204600F0B8
:1034100097F82068416901F400514161206802F089
:1034200016FBC00635D52068816921F01001816145
:10343000D9F8207007F00F01C7F34340C1EBC10179
:10344000022804EB810505F5FE7502D0062811D08F
:103450001AE047F6F070074216D0C7F30A12E9687F
:103460001746484602F0F7FAE968A8693944E96066
:10347000384408E000990822484602F0ECFAA869AE
:10348000C7F30A110844A8612068816941F010015E
:103490008161206802F0DBFA000707D5204600F0C2
:1034A00051F82068416901F008014161206802F08B
:1034B000CEFAC00208D52046F1B200F03FF82068ED
:1034C000416901F480114161206802F0C0FA800274
:1034D00008D52046F1B200F032F82068416901F4C5
:1034E00000114161206802F0B2FA400007D5204681
:1034F000FFF727FD2068416901F0804141612068A4
:1035000002F0A5FA40070AD520684568680702D589
:103510002046FFF719FD2068416829434160BDE856
:10352000F88F0000C05BB3FEC091210000CA91FE7D
:1035300020753800E05459FEE09C41007047704708
:103540007047704770477047704700001848F8B5DB
:10355000016841F0805101600068164C00F0805015
:103560000090206840F480302060FFF7B9F84FF4F5
:103570007A76054605E000BFFFF7B2F8401BB0427F
:103580000FD86068C003F7D5206840F40030206091
:10359000FFF7A6F8054606E0FFF7A2F8401BB04289
:1035A00001D90320F8BD60688003F5D50020F8BD7F
:1035B00040380240007000402DE9F84F0446007882
:1035C000DFF824944FF000063746C0070ED0D9F834
:1035D000001021F40001C9F80010D9F80010626B46
:1035E0001143C9F80010606B00B90126FE4D206838
:1035F000843500030ED5E16B286820F440100843A1
:103600002860E06BB0F5801F01D010B102E0012608
:1036100000E0012720684FF4800BC0020CD5216C1C
:10362000286820F4400008432860206C584501D1E8
:10363000012601E000B901272068C10100D501265B
:10364000800666D5E8483830016841F08051016055
:103650000068DFF898A300F080500090DAF80010BE
:1036600041F48071CAF80010FFF73AF8804605E08F
:10367000FFF736F8A0EB080064287DD8DAF80000E0
:10368000C005F5D5DFF8608308F16808D8F80000B8
:1036900010F440702AD0218E01F44071814225D06F
:1036A000D8F80010D8F8002021F4407142F480329C
:1036B000C8F80020D8F8002022F48032C8F8002092
:1036C000C8F80010D8F80000C0070FD0FFF708F8BE
:1036D000824607E0FFF704F8A0EB0A0141F28830C8
:1036E0008142CAD8D8F800008007F3D5206BC0F318
:1036F000012103297ED0D9F8001021F4F811C9F86E
:103700000010228ED8F80010C2F30B021143C8F843
:1037100000102078C00607D5286820F08070286047
:103720002868A16B084328602188AF488830490485
:1037300005D5626E016821F4403111430160218892
:10374000090405D5A26E016821F4402111430160EE
:103750002168C90305D5E26E016821F440111143C7
:1037600001602168890305D5226F016821F44001B9
:1037700011430160217800E034E1490605D5626C0F
:10378000016821F00301114301602178090605D584
:10379000A26C016821F00C01114301602188C90568
:1037A00005D5E26C016821F03001114301602188E8
:1037B000890505D5226D016821F0C0011143016022
:1037C0002188490505D5626D016821F440711143D6
:1037D00001602188090505D5A26D016821F44061C9
:1037E000114301602188C90407D5E26D016821F405
:1037F000405100E05FE0114301602188890405D554
:10380000226E016821F440411143016021684902A0
:1038100005D5A26F016821F0806111430160216824
:103820004FF0006A890209D5E26F016821F000615A
:1038300011430160E16F514500D1012721680A075A
:1038400000D50127490305D5626F016821F0407159
:10385000114301602168090206D5D4F8802001686F
:1038600021F08051114301602168490106D5D4F847
:103870008420016821F0005111430160206800019B
:1038800006D5D4F88810286820F000700843286016
:103890002068C00006D5D4F88C10286820F080601D
:1038A00008432860DFF84891012E0ED02068B0F15F
:1038B000007F0AD08FE04F4AD9F80030104023F43F
:1038C000F8120243C9F800201BE7D9F800004E4661
:1038D00020F08060C9F80000FEF702FF804605E096
:1038E000FEF7FEFEA0EB080064287BD830680001DC
:1038F000F6D421783C487C30C90712D0616B81B97D
:10390000237A62680168D0F800C09201C1F30141D6
:1039100042EA0142CCF3036142EA016141EA0371E8
:10392000016021680A0303D5E26BB2F5801F04D061
:10393000C9021AD5216C594517D16368016894F8FA
:103940000CC002689B01C1F3014143EA0141C2F38B
:10395000027241EA0C6141EA027101602968626AFF
:1039600021F01F01521E114329602168C90110D5A1
:10397000238A62680168D0F800C09201C1F3036134
:1039800042EA034242EA0162CCF3027142EA017167
:103990000160216889010CD56168228A237B94F833
:1039A00008C0890141EA024141EA036141EA0C7120
:1039B00001603168B04641F080613160FEF790FEF1
:1039C000064604E0FEF78CFE801B64280AD8D8F86F
:1039D00000000001F6D5E7B3D9F800004E4620F00C
:1039E000805009E07BE00000083802400070004091
:1039F00000380240FFFCFF0FC9F80000FEF770FE20
:103A0000074604E0FEF76CFEC01B642867D83068E8
:103A1000C0438000F6D5216835480A0301D5E26B22
:103A20001AB1C9021DD5216CD9B963690168277E15
:103A300002689B01C1F3014143EA0143C2F30271F1
:103A400043EA076242EA0171016029686FF0FF03EF
:103A500000E04BE0A26A21F4F85103EB022211438B
:103A600029602168890212D5E16F51450FD1238C5D
:103A70006269016807689201C1F3036142EA034287
:103A800042EA0162C7F3027142EA017101602178E2
:103A9000090716D561690268D0F800C08B01277F3D
:103AA000C2F30362CCF3014143EA014141EA0261FE
:103AB00041EA077101602868E16A20F44030084358
:103AC0002860306840F080503060FEF709FE044600
:103AD00008E000BFFEF704FE001B642802D90320A3
:103AE000BDE8F88F3068C0438000F3D40020F7E7CA
:103AF000883802402DE9F04705000F4663D0444E58
:103B0000306800F00F00B84209D2306820F00F0092
:103B100038433060306800F00F00B84253D1286855
:103B20003C4C810712D5400703D5206840F4E05093
:103B300020602878000703D5206840F460402060AA
:103B4000A968206820F0F000084320602878C007AA
:103B50002AD0304968680839012810D0096802283D
:103B600010D0890700292EDA216821F003010143D2
:103B70002160FEF7B5FD804641F288390DE0096805
:103B80008903EFE78901EDE7FEF7AAFDA0EB080145
:103B9000494502D90320BDE8F0876868216801F033
:103BA0000C01B1EB800FEFD1306800F00F00B8428C
:103BB0000BD9306820F00F0038433060306800F0D7
:103BC0000F00B84201D00120E5E72878400705D56D
:103BD000E968206820F4E050084320602878000756
:103BE00006D52869216821F4604141EAC0002060BF
:103BF00000F03CF82168084AC1F30311515CC84049
:103C0000064908600020FEF7FDFF0020C3E7000022
:103C1000003C02400838024034760008740000205E
:103C200001480068704700007400002004490548FE
:103C300009680068044AC1F38221515CC84070479A
:103C40000838024074000020447600080449054802
:103C500009680068044AC1F34231515CC8407047AA
:103C6000083802407400002044760008154910B559
:103C70001548096811F00C0213D01449042A0FD01A
:103C8000082A0ED10F4C241F2268236802F03F023D
:103C90005B0207D52068C0F38810A0FB010106E095
:103CA000084610BD2168C1F38811A1FB0001002363
:103CB000FCF7BEFA2168C1F30141491C4900B0FB81
:103CC000F1F010BD083802400024F40040787D0176
:103CD0002DE9F84F05004FF000076ED02878DFF887
:103CE0002093A9F1040AC007AAF104044CD0D9F822
:103CF00000104846C1F38101012908D00068C0F3D3
:103D0000810002280AD1DAF80000400206D52068B6
:103D1000800339D568680028DFD035E06868B0F5E1
:103D2000803F0BD010B1B0F5A02F11D0206820F447
:103D300080302060206820F4802002E0206840F479
:103D400080302060686890B1FEF7CAFC06460AE041
:103D5000206840F480202060F0E700BFFEF7C0FC40
:103D6000801B642872D820688003F7D50CE0FEF72A
:103D7000B7FC064605E000BFFEF7B2FC801B6428D6
:103D8000F0D820688003F7D42878800742D5D9F886
:103D90000010484611F00C0F08D00068C0F38100F5
:103DA00002280BD1DAF80000400207D4206880070F
:103DB00018D5E868012800D114E01EE1E868002861
:103DC000206817D040F001002060FEF789FC06460D
:103DD00005E000BFFEF784FC801B0228C2D82068E3
:103DE0008007F7D52869216821F0F80141EAC00071
:103DF00020600FE020F001002060FEF771FC064615
:103E000005E000BFFEF76CFC801B02281ED820686E
:103E10008007F7D42878000729D5794869696C307C
:103E200000298046016812D041F001010160FEF7CF
:103E300057FC064605E000BFFEF752FC801B022837
:103E400004D8D8F800008007F6D510E089E021F00A
:103E500001010160FEF744FC064604E0FEF740FC69
:103E6000801B02287DD8D8F800008007F6D4287877
:103E700040076BD5DFF8888108F13808D8F80000D2
:103E8000C0000BD4D8F8001041F08051C8F80010E1
:103E9000D8F80000012700F08050009059480168D0
:103EA000C90512D40168834641F480710160FEF7B0
:103EB00017FC064605E000BFFEF712FC801B6428D5
:103EC0004FD8DBF80000C005F6D54D4EA86868361F
:103ED00001280AD008B1052811D0306820F001006F
:103EE0003060306820F0040002E0306840F00100EB
:103EF0003060A868A0B1FEF7F3FB83460CE03068A1
:103F000040F004003060F0E7FEF7EAFBA0EB0B01A5
:103F100041F28830814268D830688007F4D50EE0DD
:103F2000FEF7DEFB834607E0FEF7DAFBA0EB0B01B2
:103F300041F28830814258D830688007F4D42FB1DC
:103F4000D8F8001021F08051C8F80010A869E0B33B
:103F5000D9F80010C1F3810102294ED0022820684F
:103F600000E042E020F08070206003D0FEF7B8FB54
:103F700005463DE0FEF7B4FB064604E0FEF7B0FB65
:103F8000801B022831D820688001F7D4D5E90921A7
:103F9000DFF874C0D5E9070695F830304F0895F87A
:103FA0002C1030430CEB074545EA8212104340EADF
:103FB000016040EA0370CAF80000206840F0807099
:103FC0002060FEF78DFB054605E014E0FEF788FB58
:103FD000401B022809D820688001F7D50BE000BFFC
:103FE000FEF77EFB401B022802D90320BDE8F88FB4
:103FF00020688001F4D40020F8E70120F6E70000F3
:1040000008380240007000400000FFFF70B5040057
:104010000D4603D094F82C0010B107E0012070BDCC
:10402000002084F82D00204600F011F8022084F8CA
:104030002C002068211DFDF7CCFBD4E900022946A5
:10404000FDF70CFC012084F82C00002070BDFEF769
:1040500053B910B5044690F82C00022809D002206C
:1040600084F82C002068FDF7E3FB012084F82C0085
:10407000002010BD70B5044690F82C000D460228B3
:104080000DD0022084F82C002068FDF7D7FB2868AB
:10409000022805D05FF0010084F82C00002070BDDC
:1040A0000520F9E7401EB0F1807F10B501D3012053
:1040B00010BD4FF0E02460610F21601700F0F2FDA9
:1040C0000020A0610721216110BD10B5040003D0BC
:1040D00094F83D0010B107E0012010BD002084F8E5
:1040E0003C00204600F00CF8022084F83D002068D7
:1040F000211D01F077F9012084F83D00002010BD5A
:1041000008B50C4A01680C48914207D1016841F496
:1041100000310160006800F4003009E0074A914274
:1041200007D1016841F480210160006800F480201B
:10413000009008BD0044014044380240004801405E
:10414000022180F83D10012201680B6843F0010351
:104150000B6080F83D200020704710B5040003D0AC
:1041600094F8690010B107E0012010BD002084F828
:104170006800204600F026F8242084F869002068B2
:10418000016821F001010160204601F079FA01285F
:10419000EBD0606A10B1204601F0EEF9206841686A
:1041A00021F4904141602068816821F02A018160FA
:1041B0002068016841F0010101602046BDE810401F
:1041C00001F03EBAF0B587B0074614216846FCF707
:1041D00079F83B680024404A02253E4903263F48BF
:1041E000082793422BD13B4A1032136843F48013C3
:1041F0001360126802F4801205920A6842F0040209
:104200000A600A6802F0040205920A6842F0080295
:104210000A60096802AA01F0080105918114CDE93C
:10422000001582E8D0006946FEF768F90420694667
:1042300002AACDE900052A4882E8D00029E0254AF3
:10424000DFF8A0C01432634527D1106840F0100099
:104250001060106800F010000590086840F0010040
:104260000860086802AB0727694600F00100059066
:1042700083E8D0001C4E1015CDE900053046FEF74E
:104280003DF970150090CDE90154CDE90347694629
:104290003046FEF733F907B0F0BDDFF850C0634594
:1042A000F9D1136843F020031360126802F0200272
:1042B00005920A6842F004020A60096802AB01F044
:1042C00004010591C021CDE9001583E8D0006946BD
:1042D000DFE7000030380240005000400008024094
:1042E000000C024000100140000002400014014098
:1042F000FEE701688A69D243920701D400228A62EC
:1043000000688169C943C90703D0816941F001018F
:10431000816170472DE9F0410446006890460E46E1
:104320008069C043C0062FD40025202720688069FB
:10433000C043800611D5701CF8D02EB1FEF7D0F91D
:10434000A0EB0800B042F1D984F8417084F84250E3
:10435000032084F84050BDE8F08121681020C86136
:104360002068C7612046FFF7C4FF20680422074980
:1043700043680B404360626484F8417084F84250A3
:10438000012084F84050E6E70020E4E700E800FE62
:104390002DE9F843174604461848DAB2DDE90898D3
:1043A0001E4600900023204600F062F8424649462F
:1043B000204600F0C4F818B1606C04281CD018E046
:1043C000012EFDB209D02068390A81624246494671
:1043D000204600F0B4F80028EED120688562002263
:1043E00040214B462046CDF8008000F057F80028C9
:1043F00000D00320BDE8F8830120FBE70020008007
:104400002DE9F8430446194817461E46DAB20090D3
:10441000C3022046DDE9089800F02AF842464946E2
:10442000204600F08CF818B1606C04281CD018E00D
:10443000012EFDB209D02068390A81624246494600
:10444000204600F07CF80028EED12068856200222A
:1044500080214B462046CDF8008000F01FF8002850
:1044600000D00320BDE8F8830120FBE70020008096
:1044700070B50068C1F30901074E41EA0241049C8E
:104480004FF480654268194305EA54553543AA4301
:1044900021430A43426070BDFF63FF032DE9F041F1
:1044A0001D4617460E460446DDF8188013E0681CCA
:1044B00011D02DB1FEF714F9A0EB0800A8420AD9DB
:1044C0000020202184F8411084F8420084F8400044
:1044D0000320BDE8F0812068806936EA000004D03E
:1044E0000020B842E3D00020F3E70120F9E770B5DF
:1044F00016460D4604461BE0324629462046FFF785
:1045000009FF08B1012070BD25B1FEF7E9F8801B55
:10451000A8420DD9626C002084F84000202142F0AE
:104520002002626484F8411084F84200032070BDC8
:1045300020688069C0438006DED4002070BD70B55D
:1045400016460D4604461DE0324629462046FFF732
:10455000E1FE08B1012070BD681C13D025B1FEF743
:10456000BFF8801BA8420DD9626C002084F840007F
:10457000202142F02002626484F8411084F8420055
:10458000032070BD20688069C0438007DCD4002010
:1045900070BD10B50446FEF7A9F82046BDE81040EE
:1045A000AFF3008010B50446FEF7BAF8002818D122
:1045B0000C48844201D10C4800E00C4801210C4A0F
:1045C000206000206260C4E9020120616061E06156
:1045D0002062204600F00EF82046BDE81040FEF7AD
:1045E000A3B810BD3C2400200060004000540040EF
:1045F00032279140F0B54A4900224A4B87B04A4ED3
:104600004FF00407494D9842494C4FF01200D1F841
:1046100000C04FF0020345D14CF0080CC1F800C0B7
:10462000D1F800C00CF0080CCDF814C0D1F800C0CF
:104630004CF0020CC1F800C009680DF1080C01F043
:1046400002010591D902CDE900108CE88C003948AF
:104650006946FDF753FF802000900B2130460491FE
:104660006946FDF74BFF286840F080702860286895
:1046700000F080700590206840F080702060206815
:1046800020F08070206000220F215F20FEF726FCC2
:104690005F20FEF717FC00220F216020FEF71EFCB2
:1046A000602038E04CF0020CC1F800C009680DF140
:1046B000080C01F0020105914FF48071CDE9001062
:1046C0008CE88C0069463046FDF718FF4FF4007007
:1046D000694600903046FDF711FF286840F400104D
:1046E0002860286800F400100590206840F400104D
:1046F0002060206820F40010206000220F211F207D
:10470000FEF7ECFB1F20FEF7DDFB00220F2120202F
:10471000FEF7E4FB2020FEF7D5FB07B0F0BD00005C
:10472000303802403C24002000040240403802405F
:1047300020380240000C0240FEB50D4606464FF4FC
:104740007A74DDE908018DE8130029463046FEF74A
:1047500047F8040003D029463046FFF71AFF2046E9
:10476000FEBDFEB50D4606464FF47A74DDE908013C
:104770008DE8130029463046FEF7EAF8040003D01E
:1047800029463046FFF705FF2046FEBD2DE9F843D8
:10479000074613480E461349DDE908C81C4615466E
:1047A00000234FF4403280E80E10FDF76DF9002829
:1047B00014D10B483946FDF70DF900280ED10848F1
:1047C0002B46324641460094FDF722FA002805D1D7
:1047D000BDE8F84302480A21FDF794B9BDE8F88323
:1047E000D025002000B002402DE9FE4F8146006830
:1047F000882493468D888C2204EBCB178A46C368A5
:104800009421BE46C459C3F30B432B4404F47044B3
:104810001F04019702EBCB1240F80E4001EBCB13C3
:10482000DAF800709C214FF0AC0C01EBCB1440F295
:10483000077102910CEBCB11D9F800C0982500202C
:10484000CDF800C0A02605EBCB15DCF80CC006EBBC
:10485000CB16CCF30B4C0CF1010C07EB0C08DDF87C
:1048600000C0019F48EA07084CF80E80D9F8007094
:10487000BAF80CC0B846FF68C7F30A0767444FEAA6
:10488000074E58F8027007F4704C48F802C0D9F887
:1048900000C0DAF80870DCF80C80C8F30A0808F1E8
:1048A0000108B84448EA0E084CF80280D9F8002004
:1048B000D75827F00707D750D9F80070DAF810203A
:1048C000FA509AF831209AF818304FEA022C9AF8E8
:1048D0003220120442EA0362D9F800301F591851FD
:1048E0009AF8303043EA0C031343D9F800201351EF
:1048F000D9F80020535923F0FF035351D9F8002071
:10490000DAF814305351D9F800209359029CA3438C
:104910009351D9F80030DAE9072422439A51D9F8A3
:10492000002053585050D9F80020DAF82400505095
:10493000DAF81000C8B301283AD004283AD0022887
:1049400038D0032836D0072834D00120D9F80030D9
:10495000B02505EBCB11B42284245D5802EBCB12B9
:1049600005F0E0255D50DAE9003504EBCB14EB1AD5
:10497000BAF8285043434543D9F80000DB1C43EA0A
:1049800005434350D9F8000081586FF30A01815064
:10499000D9F80000DAF82C108150D9F8000001593C
:1049A00041F001010151BDE8FE8FFFE70420CDE792
:1049B0000320CBE70220C9E70A480021084B012267
:1049C00010B5036001714171416102628161FCF7C0
:1049D000B1FF002803D0BDE81040FCF7F9BE10BDC0
:1049E00000300240B8110020F0B587B014216846AD
:1049F000FBF768FC5648016841F01001016001684E
:104A000001F010010591016841F040010160016869
:104A100001F040010591016841F002010160016867
:104A200001F002010591016841F00801016001688F
:104A300001F008010591016841F00401016001687D
:104A400001F004010591016841F001010160016874
:104A500001F001010591016841F4007101600168F4
:104A600001F400710591016841F4807101600168F1
:104A700001F480710591016841F480610160016871
:104A800001F480610591016841F020010160016835
:104A900001F020010591016841F08001016000688A
:104AA00000246946029400F08000059047F23B0024
:104AB000CDE900042748FDF721FD022569460326BC
:104AC000A8020090CDE901542348CDE90346FDF743
:104AD00015FD4FF411406946CDE900041F480294CA
:104AE000FDF70CFDF8206946CDE900041C4802944E
:104AF000FDF704FD1B4F3020CDE900046946384620
:104B00000294FDF7FBFC08200090CDE90154CDE9AB
:104B1000034669463846FDF7F1FC48206946CDE971
:104B2000000411480294FDF7E9FC104901208DE8CA
:104B300013000F486946FDF7E1FC80206946CDE986
:104B400000040C480294FDF7D9FC07B0F0BD00004A
:104B50003038024000240240000802400020024099
:104B600000280240000C0240001802400000111012
:104B700000000240001C02400D48002110B50B4C03
:104B80000C224FF4E1330460C0E90131C160C0E997
:104B900004128161C16101624162FFF7DEFA0028FF
:104BA00003D0BDE81040FCF713BE10BD0014014057
:104BB000CC1F002010B58AB0FFF7DEFF1849202275
:104BC0006846FBF766FB01F06DFE0390154801682F
:104BD00041F4805101600068002100F48050089089
:104BE000114801F053FE10F0FF0F00D0FEE70E4C0D
:104BF0000E49206801F062FE70B12068694601F03C
:104C0000A1FE002809D1206801F055FE204601F0E0
:104C10004DFE00202060FEE7FEE70AB010BD000058
:104C200014760008303802404800002004120020AA
:104C300030B58BB028216846FBF744FB2821684635
:104C4000FBF740FB144C6D46144804F10C01606006
:104C5000C86001F110000246C0F80CD0206801F0D5
:104C60009FFE012800D0FEE700219DED000A0120F3
:104C7000C4F8081005EB8001D1ED000AF4EEC00A7B
:104C8000F1EE10FA02DDB0EE600AA060401C0A28C6
:104C9000F0D30BB030BD00004800002028040020F5
:104CA000FEE77047090700284FEA116106DA00F0B5
:104CB0000F0000F1E02080F8141D704700F1E020A3
:104CC00080F80014704700000148FEF73FB900006B
:104CD0003C200020FDF7FEBA70B50C46FC490546A5
:104CE0000020FCF703FDFA4903206B31FCF7FEFCC2
:104CF000F7490020891CFCF7F9FCF54902206231D4
:104D0000FCF7F4FCF2490020891CFCF7EFFCF049A9
:104D10000020091DFCF7EAFC0A20FFF7DBFFEC4945
:104D20000020891DFCF7E2FCE94900200831FCF76E
:104D3000DDFC0A20FFF7CEFFE54900200A31FCF731
:104D4000D5FCE34900200C31FCF7D0FCE049002001
:104D50000E31FCF7CBFCDE4900201031FCF7C6FC1D
:104D6000DB4900201231FCF7C1FCD9490020143185
:104D7000FCF7BCFCD6490020FCF7B8FCD449002065
:104D80001631FCF7B3FCD24900201831FCF7AEFC19
:104D9000CF4900201A31FCF7A9FCCD4900201C3175
:104DA000FCF7A4FCCA4900201E31FCF79FFCC8494F
:104DB00000202031FCF79AFCC54900202231FCF785
:104DC00095FCC34900202431FCF790FCC049002029
:104DD0001031FCF78BFCBE490020FCF787FCBC4976
:104DE00002206531FCF782FCB94900202631FCF72E
:104DF0007DFCB74900202831FCF778FCB44900203D
:104E00002A31FCF773FCB24900202C31FCF76EFC10
:104E1000AF4900202E31FCF769FCAD49002030314C
:104E2000FCF764FCAA4900201831FCF75FFCA84994
:104E300000203231FCF75AFCA54900201C31FCF758
:104E400055FCA34900203431FCF750FCA049002058
:104E50003631FCF74BFC9E4902206831FCF746FCDA
:104E60009B490020891CFCF741FC994906207D31B3
:104E7000FCF73CFC964900203831FCF737FC94499C
:104E80000E20A631FCF732FC914900203A31FCF7A4
:104E90002DFC8F490E20B531FCF728FC8C490020F1
:104EA0003C31FCF723FC8A490A20C431FCF71EFC84
:104EB000874900203E31FCF719FC854900205A3112
:104EC000FCF714FC82490020891CFCF70FFC804988
:104ED0000A20CF31FCF70AFC7D4900204031FCF765
:104EE00005FC7B490F20DA31FCF700FC78490020F3
:104EF0003831FCF7FBFB76490F20EA31FCF7F6FB73
:104F0000734900203A31FCF7F1FB71490A20FA316C
:104F1000FCF7ECFB6E4900203C31FCF7E7FB6D49E8
:104F20000F20FCF7E3FB6A4900203E31FCF7DEFB73
:104F300068490F201031FCF7D9FB65490020423148
:104F4000FCF7D4FB63490A202031FCF7CFFB604912
:104F500000204431FCF7CAFB5E490A202B31FCF7E4
:104F6000C5FB5B490020891CFCF7C0FB59490A209E
:104F70003631FCF7BBFB564900204031FCF7B6FB4D
:104F800054490F204131FCF7B1FB51490020383121
:104F9000FCF7ACFB4F490F205131FCF7A7FB4C4904
:104FA00000203A31FCF7A2FB4A490A206131FCF7A4
:104FB0009DFB474900203C31FCF798FB45490F20F9
:104FC0006C31FCF793FB424900203E31FCF78EFB2D
:104FD00040490F207C31FCF789FB3D490020183106
:104FE000FCF784FB3A4900205C31FCF77FFB384931
:104FF00000205E31FCF77AFB354900206031FCF778
:1050000075FB33490020FCF771FB314903206F31F8
:10501000FCF76CFB2E490020FCF768FB2C490020B4
:10502000FCF764FB2B4910208139FCF75FFB284912
:105030000020FCF75BFB274910207039FCF756FB7A
:10504000234900204631FCF751FB7820FFF742FE50
:1050500025B1022D07D11E49483101E01C494A31D2
:105060000020FCF743FB012C0ED1194900204C31E4
:10507000FCF73CFB164904207331FCF737FB14495D
:1050800004207831FCF732FB114900204E31FCF747
:105090002DFB0F4900205031FCF728FB0C49002064
:1050A0005231FCF723FB0A4900205431FCF71EFB68
:1050B000074900205631FCF719FB05490020FCF791
:1050C00015FB034900205831FCF710FB002070BD90
:1050D000807D0A08857E0A082DE9F84F0F46824632
:1050E000C1EBC700DAF800600AEB8005D5E91412BD
:1050F000686C3C358C1AA04200D20446E01C06EBDA
:1051000047194FEA900816E0A8688C1AA04200D20E
:1051100004469AF81000E11C0090A3B230464FEA12
:105120009108E968FAB200F0A4FCE8682044E8605D
:10513000A8692044A861D9F8180981B2414505D968
:10514000D5E905128A4201D20029DDD134B9D6F859
:1051500034180120B8408143C6F834180020BDE857
:10516000F88F70477047FDF739BD0000114A70B5E0
:10517000114814680021104B44F470041460083383
:1051800005680E4A0E4C45F001050560196003687C
:10519000051D1340084A03600C322C60036823F499
:1051A00080230360116000F00DF80249E0058039AA
:1051B000086070BD88ED00E000380240FFFFF6FE99
:1051C00010300024F8B56F4E00206F4A35684FF05C
:1051D000CC336C4C6D4945F4FC7EDFF8B4C1083427
:1051E0006C4FCC25C6F800E00CF1040E6A4ECCF8EA
:1051F0000050DFF89CC1694DACF1200CCEF8007076
:10520000634F183FCCF800607608A7F1040C3D60AE
:105210003F1D634DCCF800003E60624E1562624D4A
:1052200053621660760895601D0A604F50604FEA21
:10523000033C07F1040ED6604FEAF6525B4E3D6028
:10524000203E5A4F5A4D183FCEF800C006F1040CCC
:10525000326052083E1D3D60564D574FCCF800005D
:10526000DFF83CC107F1040E3260ACF1C00C524EC5
:10527000524A203E3D60504F514D183FCEF800C07D
:1052800006F1040C326052083E1D3D604D4D4E4FFC
:10529000CCF8000007F1040C32604B4E4B4A203E24
:1052A0003D60494F4A4D183FCCF8003006F1040CE0
:1052B000326052083E1D3D604FF44C65CCF8000052
:1052C000444F3260444A0B624D627B100F608A602B
:1052D0004860CB6022685B07112541F6E41142F07B
:1052E00001063E4A2660C3F84011C3F84821C3F8BE
:1052F0005051D3F858114FF6FF72144611F02001A7
:1053000004D0641E02D3D3F85811F7E74FF47A742F
:105310000090401C0090A042FBD31220C3F8500123
:10532000104603E0D3F8581101F0200109B1401EE6
:10533000F8D2F320C3F85001104603E0D3F8581117
:1053400001F0200109B1401EF8D22548C3F85001F0
:1053500004E000BFD3F8580100F0200109B1521E4B
:10536000F8D2D3F8540140F6064243F2D20110437A
:10537000C3F85401D3F8400120F40070C3F8400191
:105380001960F8BD30380240001002400020024091
:10539000200C0240CC0C00CC0A002AA00F003FF0E9
:1053A000CC0000C00A80AAAA0FC0FFFF2014024050
:1053B000FF0FC0FFCC0CCC00201802402A0A02804C
:1053C0003F0F03C000CCC000201C0240A008AAAAC6
:1053D000F00CFFFFAAAA2800FFFF3C006163110147
:1053E00014600400F0B5274B4FF0804E264D026844
:1053F0009842264E264F274C09D0704507D0A84228
:1054000005D0B04203D0B84201D0A04205D1D1F8B6
:1054100004C022F070024CEA020298421BD0704590
:1054200019D0A84217D0B04215D0B84213D0A0422C
:1054300011D0194DA8420ED0184DA8420BD0184DCE
:10544000A84208D0174DA84205D0174DA84202D057
:10545000164DA84203D1CD6822F440722A434D690B
:1054600022F080022A43026098428A68C2620A6877
:10547000826201D0A04201D1096901630121416129
:10548000F0BD0000000001400004004000080040A2
:10549000000C004000040140004001400044014075
:1054A0000048014000180040001C0040002000405F
:1054B0000148FFF777B800003C2400203EB50124E6
:1054C000002202AB8DF80820CDE900340A462346BD
:1054D00001460348FFF730F99DF808003EBD000083
:1054E0003C2400201CB5CDE900230A4601460248B1
:1054F0000123FFF721F91CBD3C24002007B501233F
:1055000082B004AACDE900230A4601460248FFF70B
:1055100028F905B000BD00003C24002013484FF0DE
:10552000804138B5016012490A6842F001020A6000
:105530000968002201F0010100910D494C31531E10
:105540000D680C4C25F080750D600D6845F0807578
:105550000D60C0E90332C0E901424261FEF7B5FDCA
:10556000BDE838400148FEF7EBBD0000781100208F
:10557000403802409F86010090F82410C90706D0E9
:105580000168836A4A6822F400321A434A6090F83C
:105590002410890706D50168C36A4A6822F480325C
:1055A0001A434A6090F82410490706D50168036B36
:1055B0004A6822F480221A434A6090F824100907AE
:1055C00006D50168436B4A6822F400421A434A60D8
:1055D00090F82410C90606D50168836B8A6822F406
:1055E00080521A438A6090F82410890606D5016813
:1055F000C36B8A6822F400521A438A6090F8241020
:10560000490611D50168036C4A6822F480121A43D6
:105610004A60016CB1F5801F06D10168436C4A688D
:1056200022F4C0021A434A6090F82410090606D5F5
:105630000168826C486820F400201043486070477D
:1056400038B500250446C566FDF74AF803462068CC
:10565000006800070BD56FF07E40009000222046C6
:105660004FF4001100F038F908B1032038BD2020B4
:1056700084F8690084F8685084F86A00002038BD16
:105680002DE9F04704468068874B884F2668D4E9A7
:105690000415E2690843D6F800C010211543002222
:1056A000284315460CEA030C814B4CEA000CC6F863
:1056B00000C04FF400492068D4F80CC0466826F4B6
:1056C000405646EA0C0646602668D4F82080A06959
:1056D000D6F808C040EA08002CF4306C4CEA000C04
:1056E000C6F808C02068B8420AD11B6813F003034B
:1056F00052D0012B7AD0022B76D0032B79D177E0D0
:105700006C4EB0420AD11B6813F00C036AD0042B14
:105710006CD0082B68D00C2B6BD169E0664EB04280
:105720000AD11B6813F030035CD0102B5ED0202B05
:105730005AD0302B5DD15BE0604EB0420AD11B687D
:1057400013F0C0034ED0402B50D0802B4CD0C02B38
:105750004FD14DE05A4EB0420DD11B6813F4407347
:1057600040D0B3F5807F41D0B3F5007F3CD0B3F596
:10577000407F3ED13CE0534EB0420FD11B6813F442
:10578000406309D0B3F5806F30D0B3F5006F2BD0F4
:10579000B3F5406F2DD12BE001212AE04A4EB042F3
:1057A0000DD11B6813F440531CD0B3F5805F1DD09E
:1057B000B3F5005F18D0B3F5405F1AD118E0434E3F
:1057C000B04216D11B6813F440430BD0B3F5804FA1
:1057D0000CD04B4508D0B3F5404F0AD108E005E0A6
:1057E00002E0FFE7002104E0022102E0042100E0E2
:1057F0000821E6694E452AD109291FD2DFE801F0C8
:105800000508141E171E1E1E1A00FEF70FFA01E0EF
:10581000FEF71CFA0146D4F80400490001EB5001E0
:10582000B1FBF0F082B20AE029496068F6E7FEF7C2
:105830001DFAEFE760684FF48031EFE7012521683A
:1058400022F00F00C2F342021043C86028E0092989
:1058500025D2DFE801F005080B24102424241C00C5
:10586000FEF7E4F909E0FEF7F1F906E06168194A8C
:1058700002EB51020EE0FEF7F9F90146D4E90020EF
:1058800001EB5001B1FBF0F080B2D06008E061683C
:1058900009EB5102B2FBF1F189B2C16000E00125D0
:1058A0002846BDE8F0870000F369FFEF00100140D3
:1058B000903802400044004000480040004C004046
:1058C000005000400014014000780040007C00407F
:1058D0000048E8010024F4002DE9F04198461746FD
:1058E0000E460446069D1DE0681C1BD02DB1FCF73A
:1058F000F7FEA0EB0800A84214D321682020002264
:105900000B6823F4D0730B6021688B6823F00103CC
:105910008B6084F8690084F86A00032084F86820AA
:10592000BDE8F0812068C06936EA000004D000209C
:10593000B842D9D00020F3E70120F9E7D0F80019E8
:105940006FF30A01C0F80019D0F80818C1F341013B
:10595000022905D1D0F8001941F00301C0F800195F
:10596000D0F8041841F48071C0F804180020704782
:105970000023C0F8103B0129D0F8101B41F400218E
:10598000C0F8101BD0F8101B41F01801C0F8101B14
:10599000D0F8101B41F0C041C0F8101B05D14FF0EA
:1059A0008021C0F8142BC0F8001B002070470000B5
:1059B0002023074A43EA811303610021491C9142D5
:1059C00001D90320704703699B06F7D40020704774
:1059D000400D0300D0F8080810F0060006D0022899
:1059E00005D0062803D0042803D0002070470320E8
:1059F000704702207047406900F001007047D0F8FE
:105A00001818D0F81C08084080B27047D0F8181851
:105A1000D0F81C080840000C704710B5D0F81028CA
:105A200001F00F0300EB4114D0F83418D4F8080942
:105A3000D94001F0010142EAC111084010BD00EB5C
:105A40004111D1F8081BD0F814080840704741698B
:105A5000806908407047D21C00F5805093080022EE
:105A600010B502E00468521C10C19A42FAD30846ED
:105A700010BD10B5029C64B900EB0230DB1C0022A3
:105A80009B0800F5805002E010C90460521C9A4245
:105A9000FAD3002010BDFEE70FB4084B10B504A9DF
:105AA00002AA039800F02EFA044602A9002000F092
:105AB000C0FD204610BC5DF814FB000033660008F2
:105AC0004100080218BF04200A0E18BF40F0010070
:105AD0004FF07F4232EA010108BF40F00200012886
